:1000000000802020110200000D0200000D020000FF
:1000100000000000000000000000000000000000E0
:100020000000000000000000000000000D020000C1
:1000300000000000000000000D0200000D020000A2
:100040000D0200000D0200000D0200000D02000074
:100050000D0200000D0200000D0200000D02000064
:10006000000000000D0200000D0200000000000072
:10007000000000000D0200000D0200000D02000053
:100080000D0200000D0200000D0200000D02000034
:100090000D0200000D020000000000000000000042
:1000A0000D0200000D020000000000000000000032
:1000B0000D020000000000000D0200000D02000013
:1000C000002243088B4274D303098B425FD3030A97
:1000D0008B4244D3030B8B4228D3030C8B420DD3AA
:1000E000FF22090212BA030C8B4202D31212090238
:1000F00065D0030B8B4219D300E0090AC30B8B4276
:1001000001D3CB03C01A5241830B8B4201D38B0323
:10011000C01A5241430B8B4201D34B03C01A5241C8
:10012000030B8B4201D30B03C01A5241C30A8B420B
:1001300001D3CB02C01A5241830A8B4201D38B02F6
:10014000C01A5241430A8B4201D34B02C01A52419A
:10015000030A8B4201D30B02C01A5241CDD2C3090C
:100160008B4201D3CB01C01A524183098B4201D388
:100170008B01C01A524143098B4201D34B01C01A73
:10018000524103098B4201D30B01C01A5241C308EB
:100190008B4201D3CB00C01A524183088B4201D35A
:1001A0008B00C01A524143088B4201D34B00C01A46
:1001B0005241411A00D20146524110467047FFE7B2
:1001C00001B5002000F006F802BDC0460029F7D0B6
:1001D00076E770477047C04670B500F097F8084D55
:1001E0008026F60195235B01EE50064C200000F0BE
:1001F00095F8054BEE50200000F090F8EFE7C04670
:1002000000000A400024F40090120000FEE7000005
:1002100010B50F4B0F4A01E002CA02C30E498B42D0
:10022000FAD30E4B0E4A01E002CA02C30D498B42BB
:10023000FAD30D4B01E0002204C30C4A9342FAD3D7
:1002400000F072F8FFF7C8FFFFF7E0FF10BDC046EF
:10025000C000202070030000C0002020C00020202B
:1002600070030000C0002020C0002020C00020201B
:100270007047000010B50748074B0849C150084AAD
:10028000D150043B0749C150D150102000F046F82E
:1002900010BDC04600000A4004080000030000B181
:1002A00000200A4001000026064A90230649D1504A
:1002B000064B8022D201952149015A5004495A50D7
:1002C0007047C046008042408100010000000A40A3
:1002D000D0120000094A0A4B0021D150094A136884
:1002E00003318B431360084B1A682D318A431A601F
:1002F0001A6821398A431A607047C04600F00A40E4
:100300000813000000010B4004010B4010B5FFF77B
:10031000B1FFFFF7C9FFFFF7DDFF10BD831E043BF0
:10032000C046FCD27047000070B500260C4C0D4D45
:10033000641BA410A64209D10026FFF799FF0A4CBE
:100340000A4D641BA410A64205D170BDB300EB5842
:1003500098470136EEE7B300EB5898470136F2E7CD
:1003600070030000700300007003000070030000C1
:04000003000000C039
:00000001FF
