:1000000000802020250200002102000021020000C3
:1000100000000000000000000000000000000000E0
:1000200000000000000000000000000021020000AD
:10003000000000000000000021020000210200007A
:1000400021020000ED010000210200002102000059
:100050002102000021020000210200002102000014
:10006000000000002102000021020000000000004A
:100070000000000021020000210200002102000017
:1000800021020000210200002102000021020000E4
:10009000210200002102000000000000000000001A
:1000A000210200002102000000000000000000000A
:1000B00021020000000000002102000021020000D7
:1000C000002243088B4274D303098B425FD3030A97
:1000D0008B4244D3030B8B4228D3030C8B420DD3AA
:1000E000FF22090212BA030C8B4202D31212090238
:1000F00065D0030B8B4219D300E0090AC30B8B4276
:1001000001D3CB03C01A5241830B8B4201D38B0323
:10011000C01A5241430B8B4201D34B03C01A5241C8
:10012000030B8B4201D30B03C01A5241C30A8B420B
:1001300001D3CB02C01A5241830A8B4201D38B02F6
:10014000C01A5241430A8B4201D34B02C01A52419A
:10015000030A8B4201D30B02C01A5241CDD2C3090C
:100160008B4201D3CB01C01A524183098B4201D388
:100170008B01C01A524143098B4201D34B01C01A73
:10018000524103098B4201D30B01C01A5241C308EB
:100190008B4201D3CB00C01A524183088B4201D35A
:1001A0008B00C01A524143088B4201D34B00C01A46
:1001B0005241411A00D20146524110467047FFE7B2
:1001C00001B5002000F006F802BDC0460029F7D0B6
:1001D00076E770477047C04610B500F0CDF8024B87
:1001E00002221A60FEE7C04600E100E0084A094B1F
:1001F000D358012B00D07047074A9C235B01D3588A
:100200009B03F8D5054B8021C901D150F3E7C046C7
:10021000000040403011000000000A40B012000011
:10022000FEE7000010B50F4B0F4A01E002CA02C3FF
:100230000E498B42FAD30E4B0E4A01E002CA02C3AA
:100240000D498B42FAD30D4B01E0002204C30C4A46
:100250009342FAD300F0A0F8FFF7BEFFFFF7E0FFEC
:1002600010BDC046C0002020E0030000C0002020D8
:10027000C0002020E0030000C0002020C00020209B
:10028000C00020207047000010B50748074B084900
:10029000C150084AD150043B0749C150D1501020E9
:1002A00000F074F810BDC04600000A4004080000C9
:1002B000030000B100200A40010000260F4B9C22E1
:1002C0000F4999500C3A812199500E4B8022D2014E
:1002D000952149015A500C495A50D0315A5804209E
:1002E00002435A500948195880229202114319506A
:1002F0000749585802435A507047C0460080424050
:1003000081000D0000000A40D012000048100000DB
:1003100028100000094A0A4B0021D150094A1368ED
:1003200003318B431360084B1A682D318A431A60DE
:100330001A6821398A431A607047C04600F00A40A3
:100340000813000000010B4004010B40074A084B52
:1003500053600848036A1B021B0AC02109060B43AD
:1003600003620023936007331360704710E000E0DE
:10037000FF7C000000ED00E010B5FFF785FFFFF700
:100380009DFFFFF7C7FFFFF7E1FF10BD831E043B92
:10039000C046FCD27047000070B500260C4C0D4DD5
:1003A000641BA410A64209D10026FFF76BFF0A4C7C
:1003B0000A4D641BA410A64205D170BDB300EB58D2
:1003C00098470136EEE7B300EB5898470136F2E75D
:1003D000E0030000E0030000E0030000E003000091
:04000003000000C039
:00000001FF
