:1000000000802020A10200009D0200009D0200004F
:1000100000000000000000000000000000000000E0
:100020000000000000000000000000009D02000031
:1000300000000000000000009D0200004D020000D2
:100040009D0200009D0200009D0200009D02000034
:100050009D0200009D0200009D0200009D02000024
:10006000000000009D0200009D0200000000000052
:10007000000000009D0200009D02000065020000DB
:100080009D0200009D0200009D0200009D020000F4
:100090009D0200009D020000000000000000000022
:1000A0009D0200009D020000000000000000000012
:1000B0009D020000000000009D0200009D02000063
:1000C000002243088B4274D303098B425FD3030A97
:1000D0008B4244D3030B8B4228D3030C8B420DD3AA
:1000E000FF22090212BA030C8B4202D31212090238
:1000F00065D0030B8B4219D300E0090AC30B8B4276
:1001000001D3CB03C01A5241830B8B4201D38B0323
:10011000C01A5241430B8B4201D34B03C01A5241C8
:10012000030B8B4201D30B03C01A5241C30A8B420B
:1001300001D3CB02C01A5241830A8B4201D38B02F6
:10014000C01A5241430A8B4201D34B02C01A52419A
:10015000030A8B4201D30B02C01A5241CDD2C3090C
:100160008B4201D3CB01C01A524183098B4201D388
:100170008B01C01A524143098B4201D34B01C01A73
:10018000524103098B4201D30B01C01A5241C308EB
:100190008B4201D3CB00C01A524183088B4201D35A
:1001A0008B00C01A524143088B4201D34B00C01A46
:1001B0005241411A00D20146524110467047FFE7B2
:1001C00001B5002000F006F802BDC0460029F7D0B6
:1001D00076E770477047C046034B1860024B1B68B8
:1001E000002BFBD17047C046C400202070B500F042
:1001F00051F90C4B80221202C02149005A501A605A
:10020000094D8026F601094BEE50FA2464002000C7
:10021000FFF7E2FF95235B01EE502000FFF7DCFFC4
:10022000EEE7C04600E100E000000A409012000046
:10023000044A054BD358DB07FAD489235B01D0501D
:100240007047C0460080104008110000044B1B6836
:10025000002B03D0024A1368013B13607047C0466D
:10026000C400202010B50A4A81235B01D258FF2325
:1002700013400B2B00D010BD054A064BD358DBB200
:10028000054A13701078C0B2FFF7D2FFF3E7C046FB
:100290000080104024110000C0002020FEE7000074
:1002A00010B50F4B0F4A01E002CA02C30E498B4240
:1002B000FAD30E4B0E4A01E002CA02C30D498B422B
:1002C000FAD30D4B01E0002204C30C4A9342FAD347
:1002D00000F020F9FFF78AFFFFF7E0FF10BDC046EE
:1002E000C000202070050000C0002020C000202099
:1002F00060050000C0002020C0002020C800202091
:100300007047000010B50C4BC45861400904090C3B
:100310006140C15009494458130063403F221A40CC
:10032000624042500649425801231A4044586240F4
:1003300013406340435010BD101100001411000021
:100340000411000010B5084C084B094AE250094856
:10035000C2500949CA50043B084AE250C250CA5030
:10036000102000F0A3F810BD00000A4004080000AF
:10037000030000B100200A40008010400100002668
:10038000114B82225A65114A9A659C221049995054
:100390000C3A812199500F4B8022D20195214901BD
:1003A0005A500D495A50D0315A58042002435A50DD
:1003B0000A48195880229202114319500849585886
:1003C00002435A507047C0460080424082000400F9
:1003D00081000D0000000A40D0120000481000000B
:1003E00028100000074B084A0021995007490A6865
:1003F000032082430A600649585880225201024372
:100400005A50704700F00A400813000000010B40EA
:100410000411000070B50F490F4C200000F070F877
:100420000E49200000F048F888256D0163590C4AF8
:100430001340635103221A212000FFF763FF094A8A
:10044000A1588023DB000B43A350635901221343BF
:10045000635170BD6C050000008010406005000015
:10046000FF7FFEFF28100000074A084B5360084832
:10047000036A1B021B0AC02109060B430362002307
:10048000936007331360704710E000E0FF7C0000CA
:1004900000ED00E010B5FFF755FFFFF771FFFFF724
:1004A000A1FFFFF7B7FFFFF7DFFF10BD831E043B7F
:1004B000C046FCD27047000030B5882252018358F4
:1004C0000124A34383500B888C7823438C882343D7
:1004D00084586340084D2B40634083508B79CC791E
:1004E0000A7A23431A430549445862407E23134045
:1004F0006340435030BDC04618670200041100003D
:100500000A78034BC2504A78083BC2507047C04635
:100510000810000070B500260C4C0D4D641BA41093
:10052000A64209D10026FFF7EBFE0A4C0A4D641BD8
:10053000A410A64205D170BDB300EB589847013610
:10054000EEE7B300EB5898470136F2E7700500007C
:10055000700500007005000070050000000000003C
:10056000000018000000003000000000040000003F
:04000003000000C039
:00000001FF
