:1000000000802020250200002102000021020000C3
:1000100000000000000000000000000000000000E0
:1000200000000000000000000000000021020000AD
:10003000000000000000000021020000210200007A
:100040002102000021020000210200002102000024
:100050002102000021020000210200002102000014
:10006000000000002102000021020000000000004A
:100070000000000021020000210200002102000017
:10008000F501000021020000210200002102000011
:10009000210200002102000000000000000000001A
:1000A000210200002102000000000000000000000A
:1000B00021020000000000002102000021020000D7
:1000C000002243088B4274D303098B425FD3030A97
:1000D0008B4244D3030B8B4228D3030C8B420DD3AA
:1000E000FF22090212BA030C8B4202D31212090238
:1000F00065D0030B8B4219D300E0090AC30B8B4276
:1001000001D3CB03C01A5241830B8B4201D38B0323
:10011000C01A5241430B8B4201D34B03C01A5241C8
:10012000030B8B4201D30B03C01A5241C30A8B420B
:1001300001D3CB02C01A5241830A8B4201D38B02F6
:10014000C01A5241430A8B4201D34B02C01A52419A
:10015000030A8B4201D30B02C01A5241CDD2C3090C
:100160008B4201D3CB01C01A524183098B4201D388
:100170008B01C01A524143098B4201D34B01C01A73
:10018000524103098B4201D30B01C01A5241C308EB
:100190008B4201D3CB00C01A524183088B4201D35A
:1001A0008B00C01A524143088B4201D34B00C01A46
:1001B0005241411A00D20146524110467047FFE7B2
:1001C00001B5002000F006F802BDC0460029F7D0B6
:1001D00076E770477047C04610B500F0EDF8044B65
:1001E00080225202C02149005A501A60FEE7C046E0
:1001F00000E100E0074A81235B01D258FF2313404E
:10020000012B00D07047044A044B8021C901D15012
:10021000F8E7C0460040084000000A40B012000065
:10022000FEE7000010B50F4B0F4A01E002CA02C3FF
:100230000E498B42FAD30E4B0E4A01E002CA02C3AA
:100240000D498B42FAD30D4B01E0002204C30C4A46
:100250009342FAD300F02AF9FFF7BEFFFFF7E0FF61
:1002600010BDC046C000202010050000C0002020A6
:10027000C0002020F8040000C0002020C000202082
:10028000C00020207047000010B5084C084B094AF8
:10029000E2500948C2500949CA50043B084AE2509A
:1002A000C250CA50102000F093F810BD00000A4060
:1002B00004080000030000B100200A40004008408C
:1002C000010000260F4B9C220F4999500C3A8121C6
:1002D00099500E4B8022D201952149015A500C4968
:1002E0005A50D0315A58042002435A5009481958DC
:1002F00080229202114319500749585802435A501C
:100300007047C0460080424081000D0000000A4056
:10031000D01200004810000028100000094A0A4BC3
:100320000021D150094A136803318B431360084BF5
:100330001A682D318A431A601A6821398A431A6073
:100340007047C04600F00A400813000000010B404F
:1003500004010B4010B50849084C200000F03EF89D
:100360000749200000F064F806496358012213434E
:100370006350054BE25010BD0C05000000400840E2
:10038000F80400002810000008110000074A084B7C
:1003900053600848036A1B021B0AC02109060B436D
:1003A00003620023936007331360704710E000E09E
:1003B000FF7C000000ED00E010B5FFF765FFFFF7E0
:1003C00081FFFFF7ABFFFFF7C5FFFFF7DFFF10BDB2
:1003D000831E043BC046FCD2704700000A78044BE1
:1003E000C2504A78083BC2508A78024BC2507047CC
:1003F000081000000C110000034B9C466044920062
:10040000801801607047C0461018000010B5064CF7
:10041000A44660449B00C018114303685940034A36
:1004200011405940016010BD30180000777702007C
:1004300070B505000C004A68184BC2500B78222B8F
:100440000AD8102B19D2002B01D0022B04D1144A48
:10045000AB5814490B40AB50216900222800FFF72C
:10046000CBFFE168002300222800FFF7CFFF2378AD
:10047000227A13430A4AAB5070BD103BDBB20A4AE2
:10048000DA40D207E8D5064A815880239B054B40C5
:10049000C020800503404B40AB50DDE7081800004A
:1004A00004180000FFFFFFCF0500050070B500260F
:1004B0000C4C0D4D641BA410A64209D10026FFF779
:1004C000E1FE0A4C0A4D641BA410A64205D170BD82
:1004D000B300EB5898470136EEE7B300EB58984766
:1004E0000136F2E7100500001005000010050000BD
:0804F0001005000000000000EF
:1004F800020000003F9C0000010000000000000016
:08050800000000000807630079
:04000003000000C039
:00000001FF
