:1000000000802020510200004D0200004D0200003F
:1000100000000000000000000000000000000000E0
:100020000000000000000000000000004D02000081
:1000300000000000000000004D020000350200003A
:100040004D0200004D0200004D0200004D02000074
:100050004D0200004D0200004D0200004D02000064
:10006000000000004D0200004D02000000000000F2
:10007000000000004D0200004D0200004D02000093
:100080004D0200004D0200004D0200004D02000034
:100090004D0200004D0200000000000000000000C2
:1000A0004D0200004D0200000000000000000000B2
:1000B0004D020000000000004D0200004D02000053
:1000C000002243088B4274D303098B425FD3030A97
:1000D0008B4244D3030B8B4228D3030C8B420DD3AA
:1000E000FF22090212BA030C8B4202D31212090238
:1000F00065D0030B8B4219D300E0090AC30B8B4276
:1001000001D3CB03C01A5241830B8B4201D38B0323
:10011000C01A5241430B8B4201D34B03C01A5241C8
:10012000030B8B4201D30B03C01A5241C30A8B420B
:1001300001D3CB02C01A5241830A8B4201D38B02F6
:10014000C01A5241430A8B4201D34B02C01A52419A
:10015000030A8B4201D30B02C01A5241CDD2C3090C
:100160008B4201D3CB01C01A524183098B4201D388
:100170008B01C01A524143098B4201D34B01C01A73
:10018000524103098B4201D30B01C01A5241C308EB
:100190008B4201D3CB00C01A524183088B4201D35A
:1001A0008B00C01A524143088B4201D34B00C01A46
:1001B0005241411A00D20146524110467047FFE7B2
:1001C00001B5002000F006F802BDC0460029F7D0B6
:1001D00076E770477047C046034B1860024B1B68B8
:1001E000002BFBD17047C046C000202010B500F0A6
:1001F00033F919E0002221000C4800F04FF90120EA
:10020000FFF7EAFF0134FA239B009C42F2DB084C23
:1002100008E000222100054800F040F90120FFF726
:10022000DBFF013C002CF4DC0024ECE700008740FD
:10023000E7030000044B1B68002B03D0024A13683D
:10024000013B13607047C046C0002020FEE700005D
:1002500010B50F4B0F4A01E002CA02C30E498B4290
:10026000FAD30E4B0E4A01E002CA02C30D498B427B
:10027000FAD30D4B01E0002204C30C4A9342FAD397
:1002800000F084FAFFF7B2FFFFF7E0FF10BDC046B1
:10029000C000202000080000C0002020C000202056
:1002A000D8070000C0002020C0002020C800202067
:1002B0007047000070B50A4D0A4B0B4AEA500B4CD0
:1002C000E2500B48C2500B49CA50043B0A4AEA505C
:1002D000E250C250CA50102000F0CCF870BDC046A9
:1002E00000000A4004080000030000B100200A409A
:1002F0000000874000400840010000260E4A90237D
:100300008521D1500D4B0E498020C00158509C21B1
:100310000C4850509D2149015A58042002435A501C
:100320000948195880229202114319500749585818
:1003300002435A507047C0460080424000000A40C5
:10034000D012000081000D004810000028100000AD
:10035000094A0A4B0021D150094A136803318B43E3
:100360001360084B1A682D318A431A601A682139C4
:100370008A431A607047C04600F00A400813000024
:1003800000010B4004010B4010B582B01349144C1E
:10039000200000F075F81349200000F095F9124A8A
:1003A000A35812490B40A3500023009300220021C0
:1003B000200000F0DDF800220021200000F0C8F845
:1003C000FA2100228900200000F068F80123084A81
:1003D000A350083AA35002B010BDC046F807000071
:1003E00000008740F0070000041800007F00FFFFB6
:1003F0000811000010B50849084C200000F040F832
:100400000749200000F066F80649635801221343AB
:100410006350054BE25010BDEC070000004008405F
:10042000D80700002810000008110000074A084BF8
:1004300053600848036A1B021B0AC02109060B43CC
:1004400003620023936007331360704710E000E0FD
:10045000FF7C000000ED00E010B5FFF72BFFFFF779
:100460004DFFFFF775FFFFF78FFFFFF7C3FFFFF7A4
:10047000DDFF10BD831E043BC046FCD27047000068
:100480000A78044BC2504A78083BC2508A78024B23
:10049000C2507047081000000C110000034B9C462E
:1004A00060449200801801607047C0461018000038
:1004B00010B5064CA44660449B00C0181143036865
:1004C0005940034A11405940016010BD30180000E6
:1004D0007777020070B505000C004A68184BC250CF
:1004E0000B78222B0AD8102B19D2002B01D0022B0B
:1004F00004D1144AAB5814490B40AB502169002277
:100500002800FFF7CBFFE168002300222800FFF757
:10051000CFFF2378227A13430A4AAB5070BD103BB9
:10052000DBB20A4ADA40D207E8D5064A815880236E
:100530009B054B40C020800503404B40AB50DDE79E
:100540000818000004180000FFFFFFCF0500050099
:10055000064B9C4660449200801803685940E02294
:1005600052031140594001607047C04630180000E6
:1005700030B503AC2478044DAC466044A4000019A7
:1005800011431943016030BD50180000054B9C46D3
:1005900060449200801803685940034A1140594052
:1005A0000160704770180000DBB6C1FF10B5C424AD
:1005B0006401A44660449B00C0180A4303685A4083
:1005C0008F2111405940016010BD000070B582B00C
:1005D00004000D000B79002B11D0202B52D00B689A
:1005E0005B08354A8350A026B60000223100FFF791
:1005F000CDFF012231002000FFF7C8FF0CE00B689F
:10060000013B2D4A835000228821FFF7BFFF0122C2
:1006100088212000FFF7BAFF0023002200212000DC
:10062000FFF746FF0123002200212000FFF740FFD3
:1006300000230093002200212000FFF799FF0123EF
:1006400000930023002200212000FFF791FF0023E8
:10065000002200212000FFF7A9FF01230022002132
:100660002000FFF7A3FF2B79AA791343022213433B
:10067000DBB2124AA1584B40114803404B40A350F3
:1006800002B070BD0B68013B0B4A83500D4E002237
:100690003100FFF77BFF012231002000FFF776FFDA
:1006A000064AA15880239B054B40C020800503408B
:1006B0004B40A350B0E7C0460818000004180000E3
:1006C000BFFF00300104000070B584B004000D00CD
:1006D0004B79002B41D00B79002B0DD0202B48D02B
:1006E000A026B60002223100FFF750FF032231009E
:1006F0002000FFF74BFF08E002228821FFF746FFAA
:10070000032288212000FFF741FF0223002200215D
:100710002000FFF7CDFE0323002200212000FFF779
:10072000C7FE022300930023002200212000FFF7D0
:100730001FFF032300930023002200212000FFF766
:1007400017FF0223002200212000FFF72FFF0323C1
:10075000002200212000FFF729FF2B6802A9029345
:100760002B790B71AB798B712000FFF72FFF04B051
:1007700070BD054E02223100FFF708FF0322310051
:100780002000FFF703FFC0E70104000070B500265A
:100790000C4C0D4D641BA410A64209D10026FFF796
:1007A00087FD0A4C0A4D641BA410A64205D170BDFA
:1007B000B300EB5898470136EEE7B300EB58984783
:1007C0000136F2E700080000000800000008000001
:0807D000000800000000000019
:1007D800020000003F9C0000010000000000000033
:1007E8000000000008076300E803000000000100A3
:0807F8000807000000000000EA
:04000003000000C039
:00000001FF
